:100422003F065B4F666D7D077F6FFEFDFBF7EFDFDB
:02043200BF7F8A
:100410000642010101010101C100C102C101012126
:0104200000DB
:10035B0075900FE590540FF508640F60297F0A1212
:10036B0003E4E590540F640F601CE590540FF508FF
:10037B0044F0F590E59054F0FFE59054F0FEBEF09C
:08038B00F8E5082FFF227FFFB7
:010393002247
:1002FF0012035BEF1203BE033A7703377B03347DA0
:10030F0003317E0346B70343BB0340BD033DBE032A
:10031F0052D7034FDB034CDD0349DE0355EE0000DC
:10032F0003587F00227F01227F02227F03227F0456
:10033F00227F05227F06227F07227F08227F092244
:0C034F007F74227F6F227F63227FFF22D9
:1003FE00E4F53D7433253DF8E4F6053DE53DB408DE
:02040E00F222D8
:1001680012000EE4F5417540067F08120394120050
:10017800031202FF8F3BE53BF460EEC28CC28ED2C5
:10018800A0D2A1E53BB4631DE541C3940350161208
:1001980003FE75333075343775357375363E7537EC
:1001A80078D20280C43001083002051200C780B935
:1001B800E541C3940350B212001EE53BB46FAA3068
:1001C800001AC200E4F541C2A1300202D20175351D
:1001D8005E753677753754753854808D0541C2A0E1
:1001E800E4F53FD28CD28E75336D75347C02017183
:1003E400AE071FEE6013E4FCFDC3ED94F4EC94013E
:0903F40050EE0DBD00010C80F07B
:0103FD0022DD
:10039400E4F580D2A2C2A2E52190042C93F580D288
:1003A400A3C2A374332521F8E6F580D2A2C2A20524
:0903B40021E521B50703E4F52160
:0103BD00221D
:10001E00E53C70031203FEE53BB4741DE53CC3944E
:10002E00014016153C753D077432253DF8E6FF7408
:10003E0033253DF8A607D53DEFE53CC39406503A6F
:10004E00E53B646F6034E53B6474602E742B253C95
:10005E00F8A63BE4F53DE53DD3953C501B742B25AE
:10006E003DF8E690042293FFC37407953C253D248A
:10007E0033F8A607053D80DE053CE53B646F70381E
:10008E00853C29F53CE5296540702AF529D200F515
:10009E003DE53DC39540501D3000137442253DF89B
:1000AE00E6FF742B253DF8E6B50703D38001C39216
:0900BE0000053D80DC1203FE2266
:1000C700E53B646F606DE53B64636067E53E700325
:1000D7001203FEE53B6474701FE53EC394014018AC
:1000E700153E753D077432253DF8E6FF7433253D0F
:1000F700F8A607D53DEF803BE53B64746035E53EE8
:10010700C39406502E7423253EF8A63BE4F53DE53F
:100117003DD3953E501B7442253DF8E6900422934B
:10012700FFC37407953E253D2433F8A607053D8098
:10013700DE053EE53B646F7027C201C20275337668
:10014700E53E601CF540E4F53EF53D7423253DF89A
:10015700E6FF7442253DF8A607053DE53DB406EBED
:010167002275
:0A000E00438911D2AFD2A9D2AB2270
:080003007F011203E4052A222B
:03000B000202846A
:0B028400C0E0C0D075D000C000C00773
:10028F00758CF8758A300522E52264967059F5222F
:10029F00053FE53FC39407501D753D077432253D5B
:1002AF00F8E6FF7433253DF8A607D53DEF743225E8
:1002BF003FF876008031E53FC39407402A753D0033
:1002CF007434253DF8E6FF7433253DF8A607053D48
:1002DF00E53DB407EBC3740E953F2433F87600E584
:0702EF003FB40C03753F0052
:0902F600D007D000D0D0D0E032D6
:03001B00020434A8
:09043400758DFE852A8BB2A432FD
:030000000201F802
:0C01F800787FE4F6D8FD75814702023FD5
:1003BE00D083D082F8E4937012740193700DA3A3CE
:1003CE0093F8740193F5828883E4737402936860E2
:0603DE00EFA3A3A380DFE2
:10020400020168E493A3F8E493A34003F68001F2A7
:1002140008DFF48029E493A3F85407240CC8C333FB
:10022400C4540F4420C8834004F456800146F6DFCA
:10023400E4800B0102040810204080900410E47E46
:10024400019360BCA3FF543F30E509541FFEE493BF
:10025400A360010ECF54C025E060A840B8E493A386
:10026400FAE493A3F8E493A3C8C582C8CAC583CAB1
:10027400F0A3C8C582C8CAC583CADFE9DEE780BE69
:0104210000DA
:00000001FF
